{
  "_format": "hh-sol-artifact-1",
  "contractName": "AnomalyLog",
  "sourceName": "contracts/AnomalyLog.sol",
  "abi": [
    {
      "anonymous": false,
      "inputs": [
        {
          "indexed": true,
          "internalType": "uint256",
          "name": "id",
          "type": "uint256"
        },
        {
          "indexed": false,
          "internalType": "string",
          "name": "deviceId",
          "type": "string"
        },
        {
          "indexed": false,
          "internalType": "string",
          "name": "deviceClass",
          "type": "string"
        },
        {
          "indexed": false,
          "internalType": "uint8",
          "name": "severity",
          "type": "uint8"
        },
        {
          "indexed": false,
          "internalType": "uint256",
          "name": "trustScore",
          "type": "uint256"
        },
        {
          "indexed": false,
          "internalType": "string",
          "name": "topFeature",
          "type": "string"
        },
        {
          "indexed": false,
          "internalType": "string",
          "name": "actionTaken",
          "type": "string"
        },
        {
          "indexed": false,
          "internalType": "bytes32",
          "name": "dataHash",
          "type": "bytes32"
        },
        {
          "indexed": false,
          "internalType": "uint256",
          "name": "timestamp",
          "type": "uint256"
        }
      ],
      "name": "AnomalyLogged",
      "type": "event"
    },
    {
      "inputs": [
        {
          "internalType": "string",
          "name": "deviceId",
          "type": "string"
        }
      ],
      "name": "getDeviceLogs",
      "outputs": [
        {
          "components": [
            {
              "internalType": "uint256",
              "name": "id",
              "type": "uint256"
            },
            {
              "internalType": "uint256",
              "name": "timestamp",
              "type": "uint256"
            },
            {
              "internalType": "string",
              "name": "deviceId",
              "type": "string"
            },
            {
              "internalType": "string",
              "name": "deviceClass",
              "type": "string"
            },
            {
              "internalType": "uint8",
              "name": "severity",
              "type": "uint8"
            },
            {
              "internalType": "uint256",
              "name": "trustScore",
              "type": "uint256"
            },
            {
              "internalType": "string",
              "name": "topFeature",
              "type": "string"
            },
            {
              "internalType": "string",
              "name": "actionTaken",
              "type": "string"
            },
            {
              "internalType": "bytes32",
              "name": "dataHash",
              "type": "bytes32"
            }
          ],
          "internalType": "struct AnomalyLog.AnomalyEvent[]",
          "name": "",
          "type": "tuple[]"
        }
      ],
      "stateMutability": "view",
      "type": "function"
    },
    {
      "inputs": [
        {
          "internalType": "uint256",
          "name": "n",
          "type": "uint256"
        }
      ],
      "name": "getRecentLogs",
      "outputs": [
        {
          "components": [
            {
              "internalType": "uint256",
              "name": "id",
              "type": "uint256"
            },
            {
              "internalType": "uint256",
              "name": "timestamp",
              "type": "uint256"
            },
            {
              "internalType": "string",
              "name": "deviceId",
              "type": "string"
            },
            {
              "internalType": "string",
              "name": "deviceClass",
              "type": "string"
            },
            {
              "internalType": "uint8",
              "name": "severity",
              "type": "uint8"
            },
            {
              "internalType": "uint256",
              "name": "trustScore",
              "type": "uint256"
            },
            {
              "internalType": "string",
              "name": "topFeature",
              "type": "string"
            },
            {
              "internalType": "string",
              "name": "actionTaken",
              "type": "string"
            },
            {
              "internalType": "bytes32",
              "name": "dataHash",
              "type": "bytes32"
            }
          ],
          "internalType": "struct AnomalyLog.AnomalyEvent[]",
          "name": "",
          "type": "tuple[]"
        }
      ],
      "stateMutability": "view",
      "type": "function"
    },
    {
      "inputs": [],
      "name": "getTotalLogs",
      "outputs": [
        {
          "internalType": "uint256",
          "name": "",
          "type": "uint256"
        }
      ],
      "stateMutability": "view",
      "type": "function"
    },
    {
      "inputs": [
        {
          "internalType": "string",
          "name": "deviceId",
          "type": "string"
        },
        {
          "internalType": "string",
          "name": "deviceClass",
          "type": "string"
        },
        {
          "internalType": "uint8",
          "name": "severity",
          "type": "uint8"
        },
        {
          "internalType": "uint256",
          "name": "trustScore",
          "type": "uint256"
        },
        {
          "internalType": "string",
          "name": "topFeature",
          "type": "string"
        },
        {
          "internalType": "string",
          "name": "actionTaken",
          "type": "string"
        }
      ],
      "name": "logAnomaly",
      "outputs": [
        {
          "internalType": "uint256",
          "name": "logId",
          "type": "uint256"
        }
      ],
      "stateMutability": "nonpayable",
      "type": "function"
    }
  ],
  "bytecode": "0x608060405234801561001057600080fd5b506114f1806100206000396000f3fe608060405234801561001057600080fd5b506004361061004c5760003560e01c80638715fd3614610051578063bd628d2614610081578063d6c2bcdf1461009f578063e52e64f9146100cf575b600080fd5b61006b60048036038101906100669190610d3d565b6100ff565b6040516100789190610e49565b60405180910390f35b610089610322565b6040516100969190610e49565b60405180910390f35b6100b960048036038101906100b49190610e64565b61032e565b6040516100c69190611108565b60405180910390f35b6100e960048036038101906100e4919061112a565b6106f2565b6040516100f69190611108565b60405180910390f35b60008087878787878760405160200161011d969594939291906111b0565b604051602081830303815290604052805190602001209050600080549050915060006040518061012001604052808481526020014281526020018a81526020018981526020018860ff168152602001878152602001868152602001858152602001838152509080600181540180825580915050600190039060005260206000209060090201600090919091909150600082015181600001556020820151816001015560408201518160020190805190602001906101db929190610a7f565b5060608201518160030190805190602001906101f8929190610a7f565b5060808201518160040160006101000a81548160ff021916908360ff16021790555060a0820151816005015560c0820151816006019080519060200190610240929190610a7f565b5060e082015181600701908051906020019061025d929190610a7f565b506101008201518160080155505060008860405160200161027e9190611269565b60405160208183030381529060405280519060200120905060016000828152602001908152602001600020839080600181540180825580915050600190039060005260206000200160009091909190915055827f394d65c70e0f1c6e8c1be2d1019d204d504179dd94a49d41867ad6c1c53eebca8a8a8a8a8a8a894260405161030e98979695949392919061128f565b60405180910390a250509695505050505050565b60008080549050905090565b60606000826040516020016103439190611269565b60405160208183030381529060405280519060200120905060006001600083815260200190815260200160002090506000818054905067ffffffffffffffff81111561039257610391610ba3565b5b6040519080825280602002602001820160405280156103cb57816020015b6103b8610b05565b8152602001906001900390816103b05790505b50905060005b82805490508110156106e65760008382815481106103f2576103f1611329565b5b90600052602060002001548154811061040e5761040d611329565b5b906000526020600020906009020160405180610120016040529081600082015481526020016001820154815260200160028201805461044c90611387565b80601f016020809104026020016040519081016040528092919081815260200182805461047890611387565b80156104c55780601f1061049a576101008083540402835291602001916104c5565b820191906000526020600020905b8154815290600101906020018083116104a857829003601f168201915b505050505081526020016003820180546104de90611387565b80601f016020809104026020016040519081016040528092919081815260200182805461050a90611387565b80156105575780601f1061052c57610100808354040283529160200191610557565b820191906000526020600020905b81548152906001019060200180831161053a57829003601f168201915b505050505081526020016004820160009054906101000a900460ff1660ff1660ff1681526020016005820154815260200160068201805461059790611387565b80601f01602080910402602001604051908101604052809291908181526020018280546105c390611387565b80156106105780601f106105e557610100808354040283529160200191610610565b820191906000526020600020905b8154815290600101906020018083116105f357829003601f168201915b5050505050815260200160078201805461062990611387565b80601f016020809104026020016040519081016040528092919081815260200182805461065590611387565b80156106a25780601f10610677576101008083540402835291602001916106a2565b820191906000526020600020905b81548152906001019060200180831161068557829003601f168201915b505050505081526020016008820154815250508282815181106106c8576106c7611329565b5b602002602001018190525080806106de906113e8565b9150506103d1565b50809350505050919050565b606060008080549050905080831115610709578092505b60008367ffffffffffffffff81111561072557610724610ba3565b5b60405190808252806020026020018201604052801561075e57816020015b61074b610b05565b8152602001906001900390816107435790505b5090506000848361076f9190611431565b905060005b85811015610a73576000818361078a9190611465565b8154811061079b5761079a611329565b5b90600052602060002090600902016040518061012001604052908160008201548152602001600182015481526020016002820180546107d990611387565b80601f016020809104026020016040519081016040528092919081815260200182805461080590611387565b80156108525780601f1061082757610100808354040283529160200191610852565b820191906000526020600020905b81548152906001019060200180831161083557829003601f168201915b5050505050815260200160038201805461086b90611387565b80601f016020809104026020016040519081016040528092919081815260200182805461089790611387565b80156108e45780601f106108b9576101008083540402835291602001916108e4565b820191906000526020600020905b8154815290600101906020018083116108c757829003601f168201915b505050505081526020016004820160009054906101000a900460ff1660ff1660ff1681526020016005820154815260200160068201805461092490611387565b80601f016020809104026020016040519081016040528092919081815260200182805461095090611387565b801561099d5780601f106109725761010080835404028352916020019161099d565b820191906000526020600020905b81548152906001019060200180831161098057829003601f168201915b505050505081526020016007820180546109b690611387565b80601f01602080910402602001604051908101604052809291908181526020018280546109e290611387565b8015610a2f5780601f10610a0457610100808354040283529160200191610a2f565b820191906000526020600020905b815481529060010190602001808311610a1257829003601f168201915b50505050508152602001600882015481525050838281518110610a5557610a54611329565b5b60200260200101819052508080610a6b906113e8565b915050610774565b50819350505050919050565b828054610a8b90611387565b90600052602060002090601f016020900481019282610aad5760008555610af4565b82601f10610ac657805160ff1916838001178555610af4565b82800160010185558215610af4579182015b82811115610af3578251825591602001919060010190610ad8565b5b509050610b019190610b57565b5090565b60405180610120016040528060008152602001600081526020016060815260200160608152602001600060ff168152602001600081526020016060815260200160608152602001600080191681525090565b5b80821115610b70576000816000905550600101610b58565b5090565b6000604051905090565b600080fd5b600080fd5b600080fd5b600080fd5b6000601f19601f8301169050919050565b7f4e487b7100000000000000000000000000000000000000000000000000000000600052604160045260246000fd5b610bdb82610b92565b810181811067ffffffffffffffff82111715610bfa57610bf9610ba3565b5b80604052505050565b6000610c0d610b74565b9050610c198282610bd2565b919050565b600067ffffffffffffffff821115610c3957610c38610ba3565b5b610c4282610b92565b9050602081019050919050565b82818337600083830152505050565b6000610c71610c6c84610c1e565b610c03565b905082815260208101848484011115610c8d57610c8c610b8d565b5b610c98848285610c4f565b509392505050565b600082601f830112610cb557610cb4610b88565b5b8135610cc5848260208601610c5e565b91505092915050565b600060ff82169050919050565b610ce481610cce565b8114610cef57600080fd5b50565b600081359050610d0181610cdb565b92915050565b6000819050919050565b610d1a81610d07565b8114610d2557600080fd5b50565b600081359050610d3781610d11565b92915050565b60008060008060008060c08789031215610d5a57610d59610b7e565b5b600087013567ffffffffffffffff811115610d7857610d77610b83565b5b610d8489828a01610ca0565b965050602087013567ffffffffffffffff811115610da557610da4610b83565b5b610db189828a01610ca0565b9550506040610dc289828a01610cf2565b9450506060610dd389828a01610d28565b935050608087013567ffffffffffffffff811115610df457610df3610b83565b5b610e0089828a01610ca0565b92505060a087013567ffffffffffffffff811115610e2157610e20610b83565b5b610e2d89828a01610ca0565b9150509295509295509295565b610e4381610d07565b82525050565b6000602082019050610e5e6000830184610e3a565b92915050565b600060208284031215610e7a57610e79610b7e565b5b600082013567ffffffffffffffff811115610e9857610e97610b83565b5b610ea484828501610ca0565b91505092915050565b600081519050919050565b600082825260208201905092915050565b6000819050602082019050919050565b610ee281610d07565b82525050565b600081519050919050565b600082825260208201905092915050565b60005b83811015610f22578082015181840152602081019050610f07565b83811115610f31576000848401525b50505050565b6000610f4282610ee8565b610f4c8185610ef3565b9350610f5c818560208601610f04565b610f6581610b92565b840191505092915050565b610f7981610cce565b82525050565b6000819050919050565b610f9281610f7f565b82525050565b600061012083016000830151610fb16000860182610ed9565b506020830151610fc46020860182610ed9565b5060408301518482036040860152610fdc8282610f37565b91505060608301518482036060860152610ff68282610f37565b915050608083015161100b6080860182610f70565b5060a083015161101e60a0860182610ed9565b5060c083015184820360c08601526110368282610f37565b91505060e083015184820360e08601526110508282610f37565b915050610100830151611067610100860182610f89565b508091505092915050565b600061107e8383610f98565b905092915050565b6000602082019050919050565b600061109e82610ead565b6110a88185610eb8565b9350836020820285016110ba85610ec9565b8060005b858110156110f657848403895281516110d78582611072565b94506110e283611086565b925060208a019950506001810190506110be565b50829750879550505050505092915050565b600060208201905081810360008301526111228184611093565b905092915050565b6000602082840312156111405761113f610b7e565b5b600061114e84828501610d28565b91505092915050565b600082825260208201905092915050565b600061117382610ee8565b61117d8185611157565b935061118d818560208601610f04565b61119681610b92565b840191505092915050565b6111aa81610cce565b82525050565b600060c08201905081810360008301526111ca8189611168565b905081810360208301526111de8188611168565b90506111ed60408301876111a1565b6111fa6060830186610e3a565b818103608083015261120c8185611168565b905081810360a08301526112208184611168565b9050979650505050505050565b600081905092915050565b600061124382610ee8565b61124d818561122d565b935061125d818560208601610f04565b80840191505092915050565b60006112758284611238565b915081905092915050565b61128981610f7f565b82525050565b60006101008201905081810360008301526112aa818b611168565b905081810360208301526112be818a611168565b90506112cd60408301896111a1565b6112da6060830188610e3a565b81810360808301526112ec8187611168565b905081810360a08301526113008186611168565b905061130f60c0830185611280565b61131c60e0830184610e3a565b9998505050505050505050565b7f4e487b7100000000000000000000000000000000000000000000000000000000600052603260045260246000fd5b7f4e487b7100000000000000000000000000000000000000000000000000000000600052602260045260246000fd5b6000600282049050600182168061139f57607f821691505b602082108114156113b3576113b2611358565b5b50919050565b7f4e487b7100000000000000000000000000000000000000000000000000000000600052601160045260246000fd5b60006113f382610d07565b91507fffffffffffffffffffffffffffffffffffffffffffffffffffffffffffffffff821415611426576114256113b9565b5b600182019050919050565b600061143c82610d07565b915061144783610d07565b92508282101561145a576114596113b9565b5b828203905092915050565b600061147082610d07565b915061147b83610d07565b9250827fffffffffffffffffffffffffffffffffffffffffffffffffffffffffffffffff038211156114b0576114af6113b9565b5b82820190509291505056fea2646970667358221220907a2379b2fcba287d207ea3174f3f078c9f8741fdb3cc8272571f9cd0545cb864736f6c63430008080033",
  "linkReferences": {},
  "deployedLinkReferences": {}
}